S00F0000436F6E74726F6C2E7372656334
S11300000C9434000C9451000C9451000C94D800BE
S11300100C9451000C94FE000C9451000C9451006B
S11300200C9451000C9451000C9451000C94510008
S11300300C9451000C9451000C9451000C945100F8
S11300400C9451000C9451000C9451000C945100E8
S11300500C9451000C9451000C9451000C945100D8
S11300600C9451000C94510011241FBECFEFD8E022
S1130070DEBFCDBF11E0A0E0B1E0E0E7F2E002C0F6
S113008005900D92A230B107D9F721E0A2E0B1E0CA
S113009001C01D92A230B207E1F70E9477000C94D0
S11300A036010C940000F89484B1807E84B985B143
S11300B08F6185B98AB18F778AB98BB180688BB922
S11300C08FE180936B00E8E6F0E0808181608083BB
S11300D080E880936D0080818460808387B18F6322
S11300E087B918B881E00E941201789408950E949B
S11300F0530080910001823039F128F4882351F0B3
S11301008130A9F0F6CF8430C9F158F1853009F473
S113011042C0EFCF86E60E942F0188B1816088B982
S113012088B1817C88B986E080930001E2CF81E6C2
S11301300E942F0188B1826088B988B1827C88B915
S113014086E080930001D5CF82E60E942F0188B11A
S1130150846088B988B1847C88B986E08093000182
S1130160C8CF83E60E942F0188B1886088B988B11E
S1130170887C88B986E080930001BBCF84E60E9426
S11301802F0188B1806188B988B1807D88B986E003
S113019080930001AECF85E60E942F0188B1806272
S11301A088B988B1807E88B986E080930001A1CFA8
S11301B01F920F920FB60F9211248F93189B1092D7
S11301C00001199903C081E0809300011A9903C0CA
S11301D082E0809300011B9903C083E080930001B7
S11301E01C9903C084E0809300018BB38E7F8BBB8A
S11301F08F910F900FBE0F901F9018951F920F9222
S11302000FB60F9211248F934F9903C085E080930A
S113021000018BB38E7F8BBB8F910F900FBE0F901D
S11302201F9018958130D1F48AB18E7F8AB98AB132
S113023082608AB91092C000E1ECF0E01082808103
S113024088698083E2ECF0E010828081866080839C
S113025087E690E09093C5008093C4000895909140
S1130260C00095FFFCCF8093C6000895F894FFCF9B
S1050270060082
S9030000FC
